:020000040800F2
:100000006004002045010008271200080B100008BA
:1000100025120008B1010008ED14000800000000DE
:100020000000000000000000000000002B1200088B
:10003000F501000800000000291200082D12000838
:100040005F0100085F0100085F0100085F01000810
:100050005F0100085F0100085F010008F701000868
:100060005F0100085F0100085F0100085F010008F0
:100070005F0100085F0100085F0100085F010008E0
:100080005F0100085F0100085F0100085F010008D0
:100090005F0100085F0100085F0100085F010008C0
:1000A0005F0100085F0100085F0100085F010008B0
:1000B0005F0100085F0100085F0100085F010008A0
:1000C0005F0100085F0100085F0100085F01000890
:1000D0005F010008E11400085F0100085F010008EB
:1000E0005F0100085F0100085F0100085F01000870
:1000F0005F0100085F0100085F0100085F01000860
:100100005F0100085F0100085F0100085F0100084F
:100110005F0100085F0100085F0100085F0100083F
:100120005F0100085F0100085F0100085F0100082F
:10013000DFF80CD000F02AF800480047411600080C
:10014000600400200648804706480047FEE7FEE7B7
:10015000FEE7FEE7FEE7FEE7FEE7FEE7FEE7FEE777
:100160008F12000831010008D2B201E000F8012B23
:10017000491EFBD270470022F6E710B513460A4627
:1001800004461946FFF7F0FF204610BD064C074D08
:1001900006E0E06840F0010394E807009847103457
:1001A000AC42F6D3FFF7C8FFB0160008D01600081F
:1001B000FEE7000070B50E4D002401220221284602
:1001C00000F003FA012000F0D7F8002202212846AF
:1001D00000F0FBF9012000F0CFF8641C322CECDBBE
:1001E0002846BDE870400022022100F0EEB9000070
:1001F000001001407047022000F0D2B872B6FEE74E
:1002000010B590F821100022022905D00421816345
:1002100080F82020012010BD01680B6823F00E0338
:100220000B6001680B6823F001030B6090F840300D
:10023000C46B012101FA03F3636080F8211080F898
:100240002020104610BD00002DE9F05F90F821102D
:100250000024022903D004218163012485E0016880
:100260000A6822F00E020A6001680A6822F00102A0
:100270000A603F4E3E4FB215DFF8F4C0DFF8F09051
:10028000DFF8ECA0DFF8E8B0DFF8E4E00168783FE1
:1002900013011502ACF1640CA9F15009AAF13C0A52
:1002A000ABF1280BAEF1140E4FF48018B14227D9F0
:1002B000B9420ED0614512D049451DD0514518D0E4
:1002C000594518D0714501D1424615E0294EB14239
:1002D00001D1012210E0274E1436B14201D1102283
:1002E0000AE0244E2836B14206D0224A3C329142DE
:1002F00001D11A4600E02A461E49091F0A602BE078
:10030000B94213D0614517D0494522D051451DD07F
:1003100059451DD0714501D142461AE0B14202D182
:100320004FF0807215E0134EB14201D1012210E06E
:10033000104E1436B14201D110220AE00D4E28367B
:10034000B14206D00B4A3C32914201D11A4600E03C
:100350002A46074980394A60012180F8211000218E
:1003600080F82010416B01B188472046BDE8F09F1E
:10037000800002400804024070B5044600F02AF9EB
:100380000546601C02D004480078044400F022F9BD
:10039000401BA042FAD370BD0000002000F08EBECA
:1003A000044910B50A68024202D00860FFF7F6FF60
:1003B00010BD0000140401402DE9F84FDFF8C8918A
:1003C0000024A9F1040B23460F2709F1040AABF11D
:1003D000040ED1E00125A54006EA0502AA4276D125
:1003E000DFF8A8C14E68A6EB0C0866452BD00DDCE3
:1003F000032E34D005DC36B3012E19D0022E2FD1B6
:100400001BE0112E16D0122E2AD119E0B8F5881F44
:1004100019D006DCB8F5803F15D0B8F5801F1FD184
:1004200011E0B8F5001F0ED0B8F5041F18D10AE08E
:10043000CB6815E0CB681B1D12E0CB6808330FE0DA
:10044000CB680C330CE08B682BB1012B4FF0080309
:1004500003D0456104E0042302E0056100E00023CD
:10046000FF2A01D8064601E000F104064FEA8405A0
:1004700001D9A5F12005D6F8008007FA05FC28EA85
:100480000C0803FA05F548EA0508C6F800804D682F
:10049000ED0070D53E4DAE6946F00106AE61AD6926
:1004A00024F0030605F0010500953A4D06EB050C16
:1004B000DCF80850A607360F07FA06F825EA080503
:1004C000DFF8D480404503D14FF0000825E052E02A
:1004D000DFF8C880404502D14FF001081DE0DFF889
:1004E000C080404502D14FF0020816E0DFF8B4802A
:1004F000404502D14FF003080FE0DFF8AC804045E3
:1005000002D14FF0040808E0DFF8A080404502D196
:100510004FF0050801E04FF0060808FA06F848EA2F
:100520000508CCF808804D68D9F80060ED024D460A
:1005300001D5164300E096432E604D68DAF800605E
:10054000AD02554601D5164300E096432E604D6836
:10055000DBF80060AD035D4601D5164300E096432D
:100560002E604D68DEF80060ED03754601D5164338
:1005700000E096432E60641C0A681646E2407FF451
:1005800029AFBDE8F88F00000804014000001110F9
:10059000001002400000014000080140000C014032
:1005A000001001400014014000180140001C0140EF
:1005B0008068084000D001207047C26821EA020329
:1005C0000A4043EA0241016170470AB10161704784
:1005D0000904FBE701488068704700000000002024
:1005E0000248816802781144816070470000002051
:1005F000074810B5016841F010010160032000F0C8
:1006000079F8002000F006F800F024F8002010BD72
:100610000020024070B50D4D04464FF47A712878E1
:10062000B1FBF0F00A490968B1FBF0F000F0E0FA24
:1006300048B9102C07D200222146501E00F03AF88B
:1006400000206C6070BD012070BD00000000002023
:100650000C0000200E4808B5816941F0010181615C
:10066000816901F001010091C16941F08051C161CE
:10067000C06900F080500090052000F03BF805486C
:10068000416821F0E06141F00071416008BD000067
:100690000010024000000140002809DB00F01F02AA
:1006A000012191404009800000F1E020C0F80011D4
:1006B00070470000F0B40E4B1B680C46C3F30223D6
:1006C000C3F10705042D00D90425191D072901D2FE
:1006D000002300E0DB1E012606FA05F1491E214039
:1006E00099409E40761E16403143F0BC00F010BF8A
:1006F0000CED00E0064900F0070208684FF6FF0322
:10070000184040EA0220034A104308607047000086
:100710000CED00E00000FA052DE9F0470F4605005A
:1007200061D0434E306800F00700B84209D230680B
:1007300020F0070038433060306800F00700B8420E
:1007400051D128683B4C810712D5400703D560681A
:1007500040F4E06060602878000703D5606840F4EA
:10076000605060606068A96820F0F0000843606035
:100770002878C00728D06868012810D0216802288E
:1007800010D0890700292EDA616821F003010143A6
:100790006160FFF71FFF804641F288390DE0216854
:1007A0008903EFE78901EDE7FFF714FFA0EB0801EC
:1007B000494502D90320BDE8F0876068696800F008
:1007C0000C00B0EB810FEFD1306800F00700B842A9
:1007D0000BD9306820F0070038433060306800F0F3
:1007E0000700B84201D00120E5E72878400705D589
:1007F0006068E96820F4E0600843606028780007DA
:1008000006D56068296920F4605040EAC100606044
:1008100000F038F86168084AC1F30311515CC84020
:100820000649086006480068FFF7F4FE0020C2E7AA
:100830000020024000100240981600080C00002022
:10084000040000200448054900684968044AC1F3CF
:100850000221515CC84070470C000020001002408B
:10086000A81600080448054900684968044AC1F30D
:10087000C221515CC84070470C00002000100240AB
:10088000A81600080E4A51680E4801F00C03042B0C
:1008900011D0082B0FD10C48C1F38343C903C05CAE
:1008A0000AD55168084AC1F34041921E515C054A7D
:1008B0005043B0FBF1F070470449484370470000D3
:1008C0000010024000127A008816000800093D005E
:1008D0002DE9F84F040070D02078C04DC00749D0F2
:1008E0006868C0F38100012807D06868C0F3810000
:1008F000022809D16868C00306D52868800339D565
:1009000060680028E7D035E06068B0F5803F0BD024
:1009100010B1B0F5A02F11D0286820F480302860E5
:10092000286820F4802002E0286840F480302860A5
:10093000606890B1FFF74EFE06460AE0286840F472
:1009400080202860F0E700BFFFF744FE801B64288A
:1009500073D828688003F7D50CE0FFF73BFE064606
:1009600005E000BFFFF736FE801B6428F0D828683A
:100970008003F7D420789A4E80074FF001094FF09A
:10098000000839D5686810F00C0F07D06868C0F30C
:100990008100022809D16868C00306D4286880074E
:1009A00014D52069012808D110E02069B0B1C6F83B
:1009B0000090FFF70FFE074605E00AE1FFF70AFE89
:1009C000C01B0228C4D828688007F7D52868616949
:1009D00020F0F80040EAC10028600DE0C6F8008071
:1009E000FFF7F8FD074604E0FFF7F4FDC01B0228FF
:1009F00023D828688007F7D4207800072CD57948B9
:100A0000A169D9B1C0F80090FFF7E4FD074604E002
:100A1000FFF7E0FDC01B02280FD8686A8007F7D5F2
:100A200071484FF4FA510068B0FBF1F0009000BF3C
:100A30000098411E0091FAD20EE080E0C0F80080DC
:100A4000FFF7C8FD074604E0FFF7C4FDC01B0228FE
:100A500075D8686A8007F7D42078400760D5E869C0
:100A60000027C00008D4E86940F08050E861E869D8
:100A7000012700F0805000905C480168C90513D43C
:100A80000168834641F480710160FFF7A3FD82464F
:100A900006E000BFFFF79EFDA0EB0A0064284ED8D9
:100AA000DBF80000C005F5D5E06801280AD008B1E0
:100AB000052813D0286A20F001002862286A20F057
:100AC000040002E0286A40F001002862E06841F278
:100AD000883B98B1FFF77EFD82460BE0286A40F024
:100AE00004002862EEE700BFFFF774FDA0EB0A01E7
:100AF00059455AD8286A8007F6D50CE0FFF76AFDF9
:100B0000824605E0FFF766FDA0EB0A0159454CD887
:100B1000286A8007F6D41FB1E86920F08050E861A8
:100B2000E06988B36968C1F38101022944D00228D1
:100B3000C6F8608004D0FFF74DFD044638E034E08D
:100B4000FFF748FD074604E0FFF744FDC01B0228FD
:100B50002BD828688001F7D4206AB0F5803F05D1F2
:100B60006868A16820F4003008436860D4E908018F
:100B70000843696821F4741108436860C6F86090FE
:100B8000FFF728FD044606E025E000BFFFF722FD41
:100B9000001B022809D828688001F7D51BE000BF98
:100BA000FFF718FD001B022802D90320BDE8F88FCB
:100BB00028688001F4D40EE00128F7D06868226A22
:100BC00000F48031914204D1616A00F470108842CF
:100BD00001D00120EAE70020E8E700000010024011
:100BE00000004242800442420C000020007000409D
:100BF00010B5401EB0F1807F01D3012010BD4FF031
:100C0000E02460610F21601700F082FC0020A061E9
:100C100007202061002010BD70477047F8B50168BB
:100C200004460868CA684B6910F00F0F4FF00005C2
:100C300059D003F0010602F49077374365D0C1071D
:100C400005D0D10503D5616C41F001016164410714
:100C500005D5D90703D0616C41F0020161648107B9
:100C600005D5D90703D0616C41F004016164010727
:100C700007D502F02001314303D0616C41F0080137
:100C80006164616C00293AD0800604D5900602D5D3
:100C9000204600F02CFB20684069616CC0F3801096
:100CA000090700D460B3204600F0FAFA20684069D2
:100CB000400621D52068143050E8001F21F0400183
:100CC00040E80012002AF5D1E06BA8B16D494163FC
:100CD000E06BFFF7B9FA002811D0E06B416B01B06F
:100CE000BDE8F040084783060FD593060DD5204692
:100CF000BDE8F84000F0FBBA2046FFF78EFFF8BDD4
:100D00002046FFF78AFF6564F8BD266B2023012E7D
:100D10007CD1C6067AD5D60678D508684868009092
:100D200048694FF00206400640D5E16B086840680C
:100D30000004000CE8D0A28D8242E5D9E0858869E4
:100D400020282DD020680C3050E8001F21F480713D
:100D500040E80012002AF5D12068143050E8001F46
:100D600021F0010140E80012002AF5D1206814307A
:100D700050E8001F21F0400140E80012002AF5D1A0
:100D800084F84230256320680C3050E8001F21F0C1
:100D9000100140E80012002AF5D1E06BFFF730FAAD
:100DA0006663A08DE18D401A81B22AE0A08DE18DAD
:100DB000401A81B2E08D0028A6D00029A4D0226874
:100DC0000C3252E8000F20F4907042E80007002F28
:100DD000F5D12068143050E8002F22F0010240E8DD
:100DE0000027002FF5D184F84230256320680C30AD
:100DF00050E8002F22F0100240E80023002BF5D12C
:100E000066632046FFF708FFF8BDFFE705062BD510
:100E1000150629D594F841002128F5D1A068B0F530
:100E2000805F01D12069B0B1206A411C2162216834
:100E300000784860E08C401E0004000CE084E3D1A0
:100E40002068C16821F08001C1602068C16841F05C
:100E50004001C160D8E7206A0088C0F308004860FC
:100E6000206A801C2062E5E74006CDD55006CBD530
:100E7000CA68204622F04002CA6084F8413000F07F
:100E8000C3F8C1E79112000870B5040004D094F8CB
:100E90004100002510B106E0012070BD84F84050EB
:100EA000204600F023F8242084F841002068C1681F
:100EB00021F40051C160204600F07AFA20680169EF
:100EC00021F4904101612068416921F02A014161CA
:100ED0002068C16841F40051C1606564202084F835
:100EE000410084F842006563002070BD30B585B0D4
:100EF00000240094019402940394006818498842E5
:100F00002CD11848816941F480418161816901F4E3
:100F100080410491816941F0040181618069124D31
:100F200000F0040004904FF4007000900220019043
:100F30000320039069462846FFF73EFA2815CDE9BD
:100F40000004694628460294FFF736FA0222114649
:100F50002520FFF7AFFB2520FFF79EFB05B030BD36
:100F600000380140001002400008014070472DE9A0
:100F7000F843044690F841001F4616460D462028C7
:100F800002D00220BDE8F8837DB176B10020606414
:100F9000212084F84100FFF71DFBA6848046E684EB
:100FA000A068B0F5805F02D003E00120EAE7206985
:100FB00010B12E4600250EE000260CE080212046D0
:100FC00000F052FAA0B9AEB116F8010B21684860E2
:100FD000E08C401EE084E08C43464FF00002009716
:100FE0000028EBD14FF04001204600F03DFA30B12F
:100FF0000320C7E735F8020BC0F30800E6E720201E
:1010000084F841000020BDE77047FEE72DE9F04776
:101010001F4E054601213046FFF7CAFA1D4CDFF886
:1010200078904FF4005820B941464846FFF7C0FA7F
:1010300090B10A20FFF7A0F901213046FFF7B8FA76
:1010400020B941464846FFF7B3FA28B100F04AF804
:10105000074625B1012D0AD00020207001E020783C
:1010600010B10020BDE8F087012020700DE044465B
:101070004D4601213046FFF79BFA0028F9D1214661
:101080002846FFF795FA0028F3D13846EAE7000032
:1010900000080140100000200010014010B5FFF7CB
:1010A000B5FF012805D0022807D1BDE8104000F0A7
:1010B000E3BABDE8104000F0DDBA10BD10B5084C31
:1010C00001212046FFF774FA002808D11420FFF709
:1010D00053F901212046FFF76BFA0028F9D010BD23
:1010E0000008014010B501210748FFF761FA08B177
:1010F000012010BD4FF400510448FFF759FA0028B1
:10110000F7D0022010BD000000080140001001408F
:1011100004210148FFF751BA00100140082101489D
:10112000FFF74BBA00100140F0B585B000252B4801
:101130000095019502950395816941F01001816147
:10114000816901F010010491816941F02001816100
:10115000816901F020010491816941F004018161FC
:1011600080691F4F00F004000490002206213846D9
:10117000FFF72BFA012208213846FFF726FA7814E8
:10118000CDE900050224694602943846FFF714F9B8
:101190000E200126CDE900060320CDE90260694654
:1011A0003846FFF709F90096CDE901540D4D69461F
:1011B0002846FFF701F90C486946CDE9004028466A
:1011C0000294FFF7F9F8022211460720FFF772FA9E
:1011D0000720FFF761FA05B0F0BD000000100240E3
:1011E0000010014000080140000021100C4810B51B
:1011F0000A4901604FF4E1314160002181600C2215
:10120000C160C0E904128161C161FFF73DFE0028A1
:1012100003D0BDE81040FEF7F1BF10BD003801401B
:1012200018000020FEE7FEE770477047FFF7D8B9C7
:1012300030B58FB028216846FEF79DFF14210AA81B
:10124000FEF799FF01210804CDE900100024029463
:1012500002250491CDE907504FF4E010099068464B
:10126000FFF736FB08B172B6FEE70F20CDE90A059D
:101270004FF48060CDE90C4002210AA80E94FFF7DC
:101280004BFA002801D072B6FEE70FB030BD7047B0
:1012900010B5406A0021C185C184FFF7BEFC10BDB6
:1012A00001680C3151E8002F22F4907241E80023CC
:1012B000002BF5D10168143151E8002F22F0010212
:1012C00041E80023002BF5D1016B012909D1016808
:1012D0000C3151E8002F22F0100241E80023002BCE
:1012E000F5D1202180F8421000210163704708B534
:1012F00090F84210222901D0022008BD82684FF4E4
:1013000080539A4201D1016921B1816A9A421BD06E
:101310004AB10AE00268816A5268C2F308020A8090
:10132000816A891C08E0026972B10268526802F0A1
:101330007F020A70816A491C8162C18D491E0904BD
:10134000090CC18503D01BE002685268F1E701680F
:10135000CA6822F02002CA600168CA6822F480725A
:10136000CA6001684A6922F001024A61202180F8BE
:10137000421000214163026B012A03D0FFF7F6FD02
:10138000002008BD016301680C3151E8002F22F0F4
:10139000100241E80023002BF5D101680A68D2064B
:1013A00002D50A6849680091818DFFF735FCE7E7AF
:1013B00070B5044600680169E26821F440511143A8
:1013C00001612169A0680843616908432168CA680E
:1013D00041F20C639A430243CA6020684169A269E2
:1013E00021F44071114341611E492068884202D1B5
:1013F000FFF738FA01E0FFF725FA00EBC00101EB37
:101400000012606864218000B2FBF0F3B3FBF1F3DB
:101410006FF018067343B2FBF0F5B2FBF0F605EB84
:101420008305322303EB0515B5FBF1F5B6FBF1F6A9
:1014300005F0F00505EB0615B2FBF0F6B2FBF0F097
:10144000B0FBF1F06FF01802504306EB800003EBA5
:101450000010B0FBF1F0216800F00F002844886014
:1014600070BD0000003801402DE9F0419846174654
:101470000E460446069D27E0681C25D02DB1FFF7D7
:10148000A9F8A0EB0800A8421ED920680C3050E84B
:10149000001F21F4D07140E80012002AF5D1206825
:1014A000143050E8001F21F0010140E80012002A2A
:1014B000F5D1202084F8410084F84200002084F80F
:1014C00040000320BDE8F0812068006836EA000093
:1014D00004D00020B842CFD00020F3E70120F9E784
:1014E0000148FFF79BBB000018000020FEE700004A
:1014F0000FB4054B10B503A9044A029800F027F871
:1015000010BC5DF814FB0000251600081400002034
:101510000907090E002804DB00F1E02080F8001420
:10152000704700F00F0000F1E02080F8141D7047B4
:1015300002E008C8121F08C1002AFAD1704770479C
:10154000002001E001C1121F002AFBD170472DE9E4
:10155000F84F9946924688460546002706E025281A
:101560000AD051464A4690476D1C7F1C28780028B7
:10157000F5D13846BDE8F88F002315F8011F18464D
:101580002E2915D115F8011F04232A290DD06FF03B
:101590002F022978A1F13004092C09D800EB800032
:1015A00002EB400008446D1CF3E758F8040B6D1C77
:1015B0002A78002ADDD0632A07D0732A0FD010467C
:1015C00051464A4690477F1C2AE018F8042B8DF8B4
:1015D000002000218DF801106E46012103E058F82B
:1015E000046B4FF0FF315A074FF0000401D409E0BB
:1015F000641C84420BDA8C42FADB325D002AF7D19C
:1016000005E0641C8C42FCDB305D0028F9D12744E6
:1016100004E016F8010B51464A469047641EF8D282
:101620006D1CA3E738B504468DF8000002230122A3
:1016300069460248FFF79BFC204638BD1800002091
:10164000FEF7D6FFFFF7F4FDFFF76EFDFFF7CEFDC7
:1016500003A106A0FFF74CFF0120FFF71FFDFBE7EA
:1016600075617274207072696E74660025730D0A5C
:1016700000000000FFF74CBD10B5FFF74FFDBDE8BF
:101680001040FEF797BD0102020304050607080992
:101690000A0B0C0D0E0F10100000000000000000DF
:1016A0000102030406070809000000000102030408
:1016B000D0160008000000201800000030150008B7
:1016C000E816000818000020480400004015000833
:1016D0000100000010000000000000000024F400E1
:0816E000000000000000000002
:0400000508000131BD
:00000001FF
